:020000040800F2
:10000000FF0F0020950C0008E50C0008E50C000827
:1000100000000000000000000000000000000000E0
:10002000000000000000000000000000E50C0008D7
:100030000000000000000000E50C0008E50C0008CE
:10004000E50C0008E50C0008E50C0008E50C0008CC
:10005000E50C0008E50C0008E50C0008E50C0008BC
:1000600000000000E50C0008E50C0008E50C0008A5
:10007000E50C0008E50C0008E50C00080000000095
:10008000E50C0008E50C000800000000E50C000885
:10009000E50C0008E50C0008E50C0008E50C00087C
:1000A000E50C0008E50C0008E50C0008E50C00086C
:1000B000E50C0008E50C000800000000E50C000855
:1000C00010B5064C2378002B07D1054B002B02D02E
:1000D000044800E000BF0123237010BD640000202D
:1000E00000000000340E0008044B10B5002B03D0B4
:1000F0000349044800E000BF10BDC04600000000F6
:1001000068000020340E0008F8B557464E464546B4
:10011000DE464402E0B546008846640A360EC70F44
:10012000002E63D0FF2E24D08023E400DB041C4388
:10013000002399469B467F3E434642465D02D20FCE
:100140005B006D0A1B0E9046924665D0FF2B55D082
:1001500080220021ED00D2047F3B1543F61A43466E
:100160004A467B400F2A00D98DE06D4892008258A4
:100170009746002C54D108239946063BFF269B4600
:10018000DAE70025534602291BD0032900D1BFE03E
:10019000012928D030007F30002820DD6A0704D0F4
:1001A0000F222A40042A00D004352A0103D530004A
:1001B0005C4A80301540FE2803DCAC01640AC2B200
:1001C00001E0FF2200246402D205600ADB0710432D
:1001D00018433CBC90469946A246AB46F8BD012266
:1001E000101A1B287CDD00220024ECE7002C1DD116
:1001F00004239946033B00269B469DE7FF3E002DC6
:1002000020D1022143464A467B400A430F2AD8D8D0
:100210004548920082589746002D19D10121F1E7F7
:100220000C239946093BFF269B4685E7200000F0FA
:10023000C7F87626431F9C4000237642361A99461B
:100240009B4679E74A4603231A439146032186E7F2
:10025000280000F0B5F8431F36189D40763600217F
:100260007DE780240023E403FF22ACE70025802300
:10027000DB031C4228D01D4226D12B435C02640ABA
:100280004346FF229FE762016C01A24224D21B2158
:100290000025013E012710006D005200002801DBFF
:1002A000944201D8121B3D4301390029F3D11400B7
:1002B000621E944125436DE7BA46594625005346D0
:1002C000022900D061E77CE78023DB031C43640242
:1002D000640A3B00FF2276E7121B1A210125D9E7A9
:1002E0009E362A00B5402C00C240651EAC41144326
:1002F000620704D00F222240042A00D00434620195
:1003000003D4A401640A00225DE7012200245AE715
:100310008024E4032C436402640AFF2253E7C046AE
:100320004C0E0008FFFFFFF78C0E000870B5002888
:100330003DD0C317C5185D40C40F280000F040F839
:100340009E22121A962A07DCD2B2082833DD08381A
:1003500085406802400A23E0992A0BDD0523290025
:100360001B1AD94003001B339D402B005D1EAB417F
:1003700019430D00052801DD431F9D402B000F4947
:100380000B406E0709D00F263540042D05D00433ED
:100390005D0102D59F220B40121A9B01580AD2B26E
:1003A0004002D205400AE4071043204370BD0024F8
:1003B00000220020F4E76802400AF1E7FFFFFFFB9C
:1003C0001C2101231B04984201D3000C10391B0A85
:1003D000984201D3000A08391B09984201D3000949
:1003E000043902A2105C40187047C04604030202A0
:1003F00001010101000000000000000080B500AF15
:100400001A4B1A68194B01210A431A60174B5A6894
:10041000164B17490A405A60144B1A68134B15497A
:100420000A401A60114B1A68104B13490A401A60AF
:100430000E4B5A680D4B11490A405A600B4BDA6A51
:100440000A4B0F218A43DA62084B1A6B074B0C499F
:100450000A401A63054B5A6B044B01218A435A63C5
:10046000024B00229A60C046BD4680BD001002408B
:100470000CB8FF08FFFFF6FEFFFFFBFFFFFFC0FF0A
:10048000ECFEFFFF90B583B000AFFC1D00F052F80A
:10049000030023700C2000F051FC03003B6004209B
:1004A00000F0F2FA03001900FB1DFA1D12780A434E
:1004B0001A70082000F07EFB03001900FB1DFA1DD6
:1004C00012780A431A703B68180000F0F5FA03002E
:1004D0001900FB1DFA1D12780A431A70F3E7F0B5F4
:1004E00085B000AF786000210022B960FA6008E0B2
:1004F000C046B968FA680125002649197241B960F9
:10050000FA6079680A00920052181101891ACA002B
:1005100011000A00130000221400FA68A242E7D377
:10052000FA68A24202D1BA689A42E1D3C046BD46F7
:1005300005B0F0BD90B583B000AFAB4B5A69AA4B84
:10054000802189020A435A61A74B9A69A64B8021F0
:1005500049010A439A61A44B9A6AA34B80218902FC
:100560000A439A62A04BDA689F4B802149010A43F3
:10057000DA609D4B9A6A9C4B9C490A409A629A4B5E
:10058000DA68994B9A490A40DA609023DB051A68C9
:100590009023DB05A92109020A431A609023DB0599
:1005A0009A689023DB05C02189000A439A60914B29
:1005B000B82252015A609023DB0510229A618D4BBC
:1005C0008D4A1A60FC1D80216B2000F0F5F90300B4
:1005D00023707820FFF783FFBB1D1900752000F002
:1005E0000DF903001900FB1DFA1D12780A431A7059
:1005F000BB1D1B78712B04D0BB1D1B78732B00D047
:10060000CEE001216B2000F0D7F903001900FB1D9B
:10061000FA1D12780A431A708C21252000F0CCF9BB
:1006200003001900FB1DFA1D12780A431A700021FD
:10063000262000F0C1F903001900FB1DFA1D1278F5
:100640000A431A704021242000F0B6F90300190073
:10065000FB1DFA1D12780A431A708021672000F0F2
:10066000ABF903001900FB1DFA1D12780A431A703A
:100670008121272000F0A0F903001900FB1DFA1DBD
:1006800012780A431A7020216A2000F095F90300BD
:100690001900FB1DFA1D12780A431A700520FFF796
:1006A0001EFFBB1D1900492000F0A8F80300190027
:1006B000FB1DFA1D12780A431A70BB1D1B78482BCC
:1006C00005D0FB1D1B7808221343DBB287E0002115
:1006D000272000F071F903001900FB1DFA1D1278A4
:1006E0000A431A700A21262000F066F90300190057
:1006F000FB1DFA1D12780A431A700C21252000F008
:100700005BF903001900FB1DFA1D12780A431A70E9
:100710001621632000F050F903001900FB1DFA1D9B
:1007200012780A431A708121272000F045F903004E
:100730001900FB1DFA1D12780A431A701420FFF7E6
:10074000CEFE0021272000F037F903001900FB1D21
:10075000FA1D12780A431A708C21252000F02CF91A
:1007600003001900FB1DFA1D12780A431A700321B9
:10077000262000F021F903001900FB1DFA1D127854
:100780000A431A708721272000F016F90300190088
:10079000FB1DFA1D12780A431A70FB1D1B781EE020
:1007A000114B9A6A104B802189020A439A620E4BC0
:1007B000DA680D4B802149010A43DA600A4B9A6AD4
:1007C000094B0A490A409A62074BDA68064B084906
:1007D0000A40DA60FB1D1B7801221343DBB21800CC
:1007E000BD4603B090BDC04600100240FFFFFDFFB4
:1007F000FFEFFFFF003001405703000080B582B0DB
:1008000000AF02003960FB1D1A70C046204B9B6888
:1008100080221340FAD11E4B9B680122134001D065
:10082000042331E0FB1D1B787E2B01D902232BE032
:10083000FB1DFA1D1278802149420A431A70902349
:10084000DB05802252039A61124AFB1D1B7813704C
:10085000C0460F4B9B6801221340FAD00D4B1A780B
:100860003B681A700B4B00221A70C046084B9B68FD
:1008700001221340FAD09023DB0510229A61054B28
:100880001A783B681A7000231800BD4602B080BD7C
:10089000003001400C30014090B583B000AF04003F
:1008A00008003A601900FB1D221C1A70BB1D021CB7
:1008B0001A707B1D0A1C1A70C0463D4B9B68802233
:1008C0001340FAD13A4B9B680122134001D0042314
:1008D0006AE0FB1D1B787E2B01D9022364E07B1D9F
:1008E0001B78002B08D0BB1D1A78FB1D1B78D31872
:1008F0007F2B01DD022357E07B1D1B780122534033
:10090000DBB2002B08D0FB1D1A78BB1D1B78D31A55
:10091000002B01DC022347E0FB1DFA1D1278802129
:1009200049420A431A703AE09023DB0580225203C1
:100930009A61204AFB1D1B781370C0461C4B9B68B4
:1009400001221340FAD01B4B1A783B681A70194BDE
:1009500000221A70C046164B9B6801221340FAD041
:100960009023DB0510229A61124B1A783B681A70AB
:100970007B1D1B78002B05D0FB1D1A78FB1D013257
:100980001A7004E0FB1D1A78FB1D013A1A70BB1D9A
:100990001A78BB1D013A1A703B6801333B60BB1DDE
:1009A0001B78002BC0D100231800BD4603B090BDBA
:1009B000003001400C30014080B582B000AF020031
:1009C000FB1D1A70BB1D0A1C1A70C0461B4B9B688E
:1009D00080221340FAD1194B9B680122134001D0A9
:1009E000042327E0FB1D1B787E2B01D9022321E085
:1009F0009023DB05802252039A61114AFB1D1B786C
:100A000013700F4ABB1D1B781370C0460B4B9B68BD
:100A100080221340FAD19023DB0510229A6103E073
:100A2000074ABB1D12781A70044B9B6801221340C1
:100A3000F6D100231800BD4602B080BD0030014051
:100A40000C300140B0B584B000AF78600F257C1940
:100A50007A68002306214020FFF71EFF0300237061
:100A60000C217B187A6812881A807B6804229A5EAF
:100A70007B681A807B687A1812889A807B191B78A9
:100A80001800BD4604B0B0BD80B582B000AF020012
:100A9000FB1D1A70FB1D1B78082B01D9022306E0F1
:100AA000FB1D1B7819001D20FFF786FF03001800AF
:100AB000BD4602B080BD0000B0B584B000AF786024
:100AC0000F257C190823FB181800FFF7BBFF030054
:100AD00023707B191B78002B03D00F23FB181B7886
:100AE00060E008257B1900229B5E1800FFF71EFCC2
:100AF000041C2E4B1B78DB08DBB21A000123934049
:100B00001800FFF713FC031C191C2948FFF7FCFA17
:100B1000031C191C201CFFF7F7FA031C1A1C7B6826
:100B20001A607B1902229B5E1800FFF7FFFB041C72
:100B30001E4B1B78DB08DBB21A0001239340180020
:100B4000FFF7F4FB031C191C1948FFF7DDFA031C1F
:100B5000191C201CFFF7D8FA031C1A1C7B685A606A
:100B60007B1904229B5E1800FFF7E0FB041C0F4B6F
:100B70001B78DB08DBB21A00012393401800FFF753
:100B8000D5FB031C191C0A48FFF7BEFA031C191CED
:100B9000201CFFF7B9FA031C1A1C7B689A600F230C
:100BA000FB181B781800BD4604B0B0BD80000020C3
:100BB000AAF1824190B583B000AF0200FB1D1A700C
:100BC000FB1D1B78082B01D9022330E01A4B1B7840
:100BD00003229343DAB2184B1A70FB1D1B78072BC4
:100BE00011D8FB1D1B7819001A20FFF7E5FE030042
:100BF0001C00114B1B7819001B20FFF7DDFE0300C2
:100C00002343DBB213E0FB1DFA1D1278D2081A70E1
:100C1000094B1A78FB1D1B781343DAB2064B1A7086
:100C2000054B1B7819001B20FFF7C6FE03001800B8
:100C3000BD4603B090BDC0468100002080B584B0A1
:100C400000AF7860114B1B68002B02D10F4B104A8C
:100C50001A600E4B1B68FB600C4B1A687B68D3183C
:100C60006A46934207D900F03FF803000C221A604D
:100C700001235B4206E0054B1A687B68D218034BE0
:100C80001A60FB681800BD4604B080BD84000020D7
:100C9000980000200D4885460D480E490E4A002355
:100CA00002E0D458C4500433C4188C42F9D30B4A20
:100CB0000B4C002301E013600432A242FBD3FFF788
:100CC0009DFB00F017F8FFF7DDFBFEE7FF0F0020AC
:100CD0000000002064000020D40E00086400002002
:100CE00094000020FEE70000014B18687047C046E2
:100CF0000000002070B500260C4D0D4C641BA410A4
:100D0000A64209D1002600F095F80A4D0A4C641B52
:100D1000A410A64205D170BDB300EB589847013628
:100D2000EEE7B300EB5898470136F2E7CC0E000827
:100D3000CC0E0008CC0E0008D00E000810B5034BF6
:100D40000100186800F004F810BDC0460000002043
:100D5000032370B5CD1C9D43083506000C2D1ED213
:100D60000C25A9421DD8300000F062F8254A14680D
:100D70002100002919D1244C2368002B03D1300015
:100D800000F044F820602900300000F03FF8431CD8
:100D90002BD10C233000336000F04BF803E0002D22
:100DA000DFDA0C233360002070BD0B685B1B19D4A5
:100DB0000B2B03D90B60CC18256003E04B688C42E9
:100DC0000DD11360300000F034F8200007220B3002
:100DD000231D9043C31AE7D05A42E250E4E7636010
:100DE0000C00EFE70C004968C3E70323C41C9C43D5
:100DF000A042E1D0211A300000F008F8431CDBD1FA
:100E0000C7E7C046880000208C000020002370B592
:100E1000064C050008002360FFF710FF431C03D1B8
:100E20002368002B00D02B6070BDC04690000020CE
:100E300070477047F8B5C046F8BC08BC9E4670477E
:0C0E4000F8B5C046F8BC08BC9E467047E0
:100E4C0086020008C2010008E601000884010008BF
:100E5C00E601000862020008E601000884010008AF
:100E6C00C2010008C20100086202000884010008E7
:100E7C00B8020008B8020008B80200086E020008A8
:100E8C00C2010008C2010008E60100088201000846
:100E9C00E601000862020008E60100088201000871
:100EAC00C2010008C20100086202000882010008A9
:100EBC00B8020008B8020008B80200086C0200086A
:040ECC00E900000831
:040ED000C100000855
:100ED40004000020000000000000000000000000EA
:100EE40000000000000000000000000000000000FE
:100EF40000000000000000000000000000000000EE
:100F040000000000000000000000000000000000DD
:100F140000000000000000000000000000000000CD
:100F240000000000000000000000000000000000BD
:040F340000000000B9
:0400000508000C954E
:00000001FF
